:020000040800F2
:10000000880A002001010008732E0008732B0008E5
:10001000712E000879090008A93B000800000000C3
:10002000000000000000000000000000553500083E
:10003000B3090008000000003133000857350008FC
:100040001B0100081B0100081B0100087534000893
:100050001B0100081B010008B5090008C3090008BE
:100060001B0100081B0100081B0100081B01000800
:100070001B0100081B0100081B0100087D09000886
:100080001B0100081B0100081B0100081B010008E0
:100090001B0100081B0100081B0100081B010008D0
:1000A0001B0100081B0100081B0100081B010008C0
:1000B000E53500081B0100081B0100081B010008B2
:1000C0001B0100081B0100081B0100081B010008A0
:1000D0001B010008613B00081B0100081B01000810
:1000E000BB0900081B0100081B010008DFF80CD049
:1000F00000F0C6FB0048004701490008880A0020BC
:100100000648804706480047FEE7FEE7FEE7FEE7B1
:10011000FEE7FEE7FEE7FEE7FEE7FEE7E135000863
:10012000ED000008202A04DB203A21FA02F0002129
:10013000704721FA02F3D040C2F1200291400843F7
:1001400019467047D2B201E000F8012B491EFBD2DC
:1001500070470022F6E710B513460A4604461946D2
:10016000FFF7F0FF204610BD30B505462A460B4686
:1001700012F8010B13F8014B08B1A042F8D01CB1E2
:10018000002802D06D1CF1E7284630BDF0B480EAAB
:100190000102D40F4200B2EB410F02D202460846E0
:1001A00011464A0042D0C30DDDB2C1F3C752AD1AA9
:1001B000202D35DAC1F3160141F4000204B1524298
:1001C000C5F1200602FA06F12A411044B3EBD05FD4
:1001D00023D0C4B1012DA0EBC35009DCF0BC4FF01B
:1001E000004202EAC352DBB200F5000000F01DBA83
:1001F000400000F1807000EBC350A0F1807040EA35
:10020000D170490009E0490841EAC071A0EBC35030
:1002100000F50000400800EBC350F0BC00F0FCB952
:100220006142012202EB4101001BF6E7F0BC70477E
:1002300081F00041AAE780F00040A7E72DE9FE4FDA
:10024000804681EA0300C00F0C46009021F0004177
:1002500023F00045B8EB0200A94105D240462146F3
:1002600090461C460B46024623F00040104347D000
:10027000270DC7F30A00C3F30A510290401A0190F8
:1002800040286BDAC3F3130040F4801B00989246B9
:1002900020B10023D2EB030A63EB0B0B0198594604
:1002A000C0F14002504600F096F906460D46504611
:1002B0005946019A00F09EF910EB080061410024B4
:1002C00087EA115284EAE7731A4340D0009A62B376
:1002D000019A012A4FEA075215DC001B61EB02016B
:1002E0004FF0004202EA0752CDE90042001C41F5FE
:1002F000801132462B4600F0D5F903B0BDE8F08FEF
:1003000040462146F9E7001B61EB0201001C41F564
:10031000801300185B412018A2F5001747EB03017A
:1003200040EAD570B6196D4111E06D084FEA360606
:1003300045EAC0754FEA0752001B61EB0201001C41
:1003400041F5801149084FEA300000195141324609
:100350002B4603B0BDE8F04F00F095B9009801229C
:1003600040000023D0EB020263EBE07300982146CB
:100370004FEAE074B8EB000061EB0401E9E783F0B9
:1003800000435BE781F0004158E72DE9FE4F81EA29
:10039000030404F0004421F0004100944FF0000BEE
:1003A00023F0004350EA01045ED052EA03045BD01C
:1003B000C3F30A54C1F30A552C44A4F2F334019454
:1003C000A0FB0254C1F3130141F48011C3F31303E2
:1003D00043F4801301FB024400FB034E840A970A96
:1003E00044EA815447EA8357A4FB076802958D0AC3
:1003F00005FB07854FEA932C04FB0C542705029D4F
:100400004FEA065847EA1637B5EB08056EEB070CBE
:10041000870E920E47EA811742EA8312A7FB020178
:10042000B6EB0B0164EB00042B0D43EA0C335E18B2
:1004300044EB1C50DA465146E7FB0201C5F31304B6
:100440004FEA0B3343EA14534FEA0432019C43EA68
:100450000603A4F10C040294009CCDE900B400F062
:1004600021F903B0BDE8F08F00200146F9E770B52F
:1004700021F0004303430CD0C1F30A550024D5EB0F
:10048000040564EB0403D617AD1AB34102DB002068
:10049000014670BD201841EB025170BD9623002229
:1004A000114600F0C2B80EB540F23341029100216E
:1004B000CDE900110A460B4600F0F4F803B000BD88
:1004C00000F0004230F000400AD0C10D01F560712B
:1004D000C0F3160042EA0151C208400711437047B9
:1004E00000200146704701F0004330B421F0004184
:1004F00050EA010206D00A0DA2F56072C1F31301A1
:10050000002A02DC30BC00207047440F44EAC104DA
:10051000C100E01830BC00EBC25000F07DB8000014
:10052000002801DBC0F10040002901DBC1F10041DE
:1005300081427047002801DBC0F10040002901DB47
:10054000C1F100418842704730B50B46014600209A
:100550002022012409E021FA02F59D4205D303FA85
:1005600002F5491B04FA02F52844151EA2F1010206
:10057000F1DC30BD2DE9F05F0546002092469B4638
:1005800088460646814640241BE0284641464746A9
:100590002246FFF7C7FD53465A46C01A914110D371
:1005A00011461846224600F016F82D1A67EB01088E
:1005B0004F4622460120002100F00DF817EB0009FC
:1005C0004E41201EA4F10104DFDC484631462A4694
:1005D0004346BDE8F09F202A04DB203A00FA02F1EE
:1005E000002070479140C2F1200320FA03F3194321
:1005F00090407047202A06DBCB17203A41FA02F0E0
:1006000043EAE07306E041FA02F3D040C2F120026F
:1006100091400843194670470029A8BF7047401C05
:10062000490008BF20F00100704710B4B0FA80FC08
:1006300000FA0CF050EA010404BF10BC704749B145
:10064000CCF1200421FA04F411FA0CF118BF0121B5
:1006500021430843A3EB0C01CB1D4FEA00614FEA95
:10066000102042BF002010BC704700EBC350104464
:100670000029A4BF10BC7047401C490008BF20F0EF
:10068000010010BC704710B5141E73F1000408DAA5
:10069000401C41F1000192185B411A4301D120F046
:1006A000010010BD2DE9F04D92469B4611B1B1FA03
:1006B00081F202E0B0FA80F220329046FFF78BFF21
:1006C00004460F4640EA0A0041EA0B0153465A46E7
:1006D000084313D0114653EA010019D0C8F1400273
:1006E0005046FFF71FFD05460E4650465946424606
:1006F000FFF771FF084305D0012004E0204639468A
:10070000BDE8F08D0020054346EAE0762C433743F0
:100710000A986305E40AA0EB08000022FD0A44EAF7
:1007200047540A3002D500200146E9E701051019B7
:100730006941DDE9084500196941BDE8F04DA2E7CE
:100740002DE9F04D81EA030404F0004B21F000454F
:1007500014464FF0000A23F0004150EA050220D071
:1007600054EA01021DD0C5F30A570246C5F313032C
:10077000C1F31300C1F30A5640F4801543F480130B
:10078000A7EB0608101BD64608F2FD3873EB0500F0
:1007900002D308F1010801E092185B41B8F1000FA3
:1007A00003DA00200146BDE8F08D00204FF48011EF
:1007B000064684460EE0171B73EB050705D3121B94
:1007C00063EB050306434CEA010C49084FEA30008D
:1007D00092185B4150EA0107EDD152EA030012D0B2
:1007E00082EA040083EA0501084305D0101BAB41EF
:1007F00006D20122002306E000224FF0004302E06F
:100800006FF0010253101AEB06004CEB085110EB8D
:100810000A0041EB0B01BDE8F04DFFF734BFC1F317
:100820000A52C1F3130140F2FF3341F480119A429E
:1008300002DA00200146704740F233439A42A2F2A6
:10084000334202DC5242FFF76DBCFFF7C4BE00002A
:1008500030B5041E71F1000404DB4FF00044404247
:1008600064EB0101141E73F1000405DB1C464FF01C
:100870000043524263EB0403994208BF904230BDEB
:10088000064C074D06E0E06840F0010394E80700DD
:1008900098471034AC42F6D3FFF72CFC9470000854
:1008A000B470000870B5044600688168C943C90780
:1008B00017D1816821F00101816000F063FD0546D8
:1008C0000AE000BF00F05EFD401B022804D920684A
:1008D0008068C043C00706D020688068C043C00756
:1008E000F0D0002070BDA06A40F01000A062E06A65
:1008F00040F00100E062012070BD0000F8B5002664
:100900000446009600688168C943C9072DD08168F4
:1009100041F001018160164816490068B0FBF1F012
:1009200000E0401E00900028FBD100F02BFD0546A2
:1009300016E000BF00F026FD401B022810D92068F9
:100940008068C043C0070BD0A06A40F01000A062CE
:10095000E06A40F00100E06284F824600120F8BD04
:1009600020688068C043C007E4D10020F8BD0000C3
:100970001800002040420F00FEE70000014800F090
:10098000CFBA0000B801002030B590F840500124E3
:10099000AC40C56B6C60046863604368102B0368EF
:1009A00003D099600068C26030BD9A600068C16081
:1009B00030BD7047012000F0E3BB4FF4806000F0D1
:1009C000DFBB022000F0DCBB72B6FEE7F8B5002406
:1009D000009490F824202546012A12D0012280F8A4
:1009E00024204A681F23072A0DD20668776B521EFF
:1009F00002EB820293409F430B6893401F4377634F
:100A000019E00220F8BD06680D2A0AD2376BD21F02
:100A100002EB820293409F430B6893401F4337636E
:100A200009E0F76A0D3A02EB820293409F430B689C
:100A300093401F43F7620A68072306680A2A0AD30D
:100A4000F7680A3A02EB420293409F438B68934057
:100A50001F43F76008E0376902EB420293409F436F
:100A60008B6893401F4337610A68102A01D0112A0E
:100A700020D1124B02689A4217D193681B0219D4F5
:100A8000936843F4000393600968102912D10C495C
:100A90000C4A0968B1FBF2F101EB8101490000E069
:100AA000491E00910029FBD104E0816A41F0200138
:100AB0008162012480F824502046F8BD00240140C2
:100AC0001800002040420F000068C06C7047000012
:100AD0002DE9F0414FF0000704003D467ED0A06AAA
:100AE000002628B9E66284F82460204600F07EF8EB
:100AF0002046FFF7D7FEA16AC90600D420B1A06A3C
:100B000040F01000A06269E0A16A21F4885141F030
:100B10000201A1626268E169237B0A4347EA43015B
:100B20000A43A1684FF48077B94209D0012907D060
:100B30005FF0000194F814C0BCF1010F02D00AE08C
:100B40003946F7E7F3B1A36A43F02003A362E36AEF
:100B500043F00103E3622368D3F804C02CF4694C2A
:100B60004CEA010CC3F804C021688B68DFF870C040
:100B700003EA0C0313438B60A168B9420BD001292F
:100B800009D00CE0DFF85CC0A3690CEB43330B43E6
:100B900043F40061DFE7218A0D05A5F58015216882
:100BA000CB6A23F470032B43CB62216889680E4B18
:100BB0001940914208D1E662A16A21F0020141F098
:100BC0000101A162BDE8F081A06A20F0020040F0BE
:100BD0001000A062E06A40F00100E0620120F1E74D
:100BE000FDF7E1FF00E0FFFFFE0E1FFF00B585B03F
:100BF0000021009101910291039100680E49884201
:100C000018D10E48816941F400718161816901F454
:100C100000710491816941F0040181618069694634
:100C200000F004000490802000900320019004480C
:100C300000F0B2FA05B000BD0024014000100240EF
:100C4000000801402DE9F84300270D4604460097AF
:100C500000F098FB804620688168C90508D5A06A25
:100C600040F02000A06284F824700120BDE8F883E1
:100C70004168C90503D4C06A10F4700F2AD002205D
:100C800000F024FC3B490968B1FBF0F620680369D9
:100C900039490B424FEA61014FEAA1121FD1C368E3
:100CA0004FEA611C13EA0C0F19D103690B4225D1DD
:100CB000C068104222D1142023E0681C0AD02DB154
:100CC00000F060FBA0EB0800A84203D92068006890
:100CD000800725D5206800688007EED52DE00369E0
:100CE0000B4202D1C168114206D0026923490A426F
:100CF00006D1C068084203D1542002E0292000E058
:100D0000FC204643009816E0681C11D02DB100F07D
:100D100039FBA0EB0800A8420AD90098B04207D2DC
:100D2000A06A40F00400A06284F8247003209DE7CC
:100D30000098401C0090B042E6D321686FF012008A
:100D40000860A06A40F40070A06220688068C0F368
:100D5000424007280CD1207B50B9A06A20F4807053
:100D6000A062A06AC00403D4A06A40F00100A0629F
:100D700000207BE718000020244992244992240097
:100D800070B5044690F8240001280DD0012084F8A5
:100D900024002046FFF7B2FD02004FF0000005D00E
:100DA00084F82400104670BD022070BDA16A40F294
:100DB0000123994341F48071A1621F4D23681F49AB
:100DC000AB4218D10E6816F4702F14D0A66A46F400
:100DD0008016A6620E68760505D5A66A26F400562A
:100DE00046F48056A662A66AF6040AD5E66A26F09C
:100DF0000606E66206E0A66A26F48016A6625E682B
:100E0000E9E7E06284F824006FF0020018602068CF
:100E10008368C3F34243072B05D1A84208D1096870
:100E200011F4702F04D0816841F480118160B9E71A
:100E3000816841F4A001F9E7002801400424014041
:100E400010B590F821100022022905D004218163F9
:100E500080F82020012010BD01680B6823F00E03EC
:100E60000B6001680B6823F001030B6090F84030C1
:100E7000C46B012101FA03F3636080F8211080F84C
:100E80002020104610BD000010B590F8211000245D
:100E9000022903D00421816301243DE001680A682E
:100EA00022F00E020A6001680A6822F001020A605C
:100EB0001A4A0168914201D1012121E0174A1432F6
:100EC000914201D110211BE0144A2832914201D1F4
:100ED000891515E0114A3C32914201D189140FE085
:100EE0000E4A5032914202D14FF4803108E00B4A51
:100EF0006432914202D14FF4801101E04FF08071D1
:100F0000064A083A5160012180F82110002180F83A
:100F10002010416B01B18847204610BD08000240F7
:100F20002DE9F05FC16B0C6801680B68D0F840C018
:100F3000042202FA0CF2494DDFF824A1494E4A4F2F
:100F4000DFF828B1DFF828E122422CD05A072AD551
:100F50000A68920603D40A6822F004020A60016853
:100F6000A94201D1042219E0514501D1402215E0E6
:100F7000B14202D14FF4806210E0B94202D14FF485
:100F800080420BE0594502D14FF4802206E07145C2
:100F900002D14FF4800201E04FF080622F490839FE
:100FA0004A60C16A3BE04FF0020808FA0CF818EA00
:100FB000040F4FF000094FF0010235D05FEA83784B
:100FC00032D50B689B0605D40B6823F00A030B602F
:100FD00080F821200168A94201D1022219E051457F
:100FE00001D1202215E0B14202D14FF4007210E08D
:100FF000B94202D14FF400520BE0594502D14FF4EF
:10100000003206E0714502D14FF4001201E04FF0CA
:101010000072124908394A6080F82090816A0029DC
:101020001AD0BDE8F05F0847082505FA0CF52542FF
:1010300012D01B0710D50B6823F00E030B6090F83D
:101040004010C36B02FA01F15960826380F82120DD
:1010500080F82090016BE2E7BDE8F09F08000240B5
:101060001C00024030000240440002405800024090
:101070006C00024030B528B308C813491422194443
:10108000B1FBF2F18900C16310498163022141770C
:101090001A6843F6F0718A43D0E900142143D0E97D
:1010A00002452C4321430469214344692143846957
:1010B00021431143196000214163012242770177E6
:1010C000084630BD012030BDF8FFFDBF00000240E2
:1010D00070B5044690F82000002501280CD00120AE
:1010E00084F8200094F821600020012E06D084F8B6
:1010F00020000225284670BD022070BD022684F81B
:101100002160A0632068066826F00106066020467C
:10111000FFF73AFCE06A00282068016802D041F03D
:101120000E0106E021F0040101602068016841F031
:101130000A0101602068016841F001010160D9E7FE
:1011400070B5044600F01EF90546601C02D0044844
:101150000078044400F016F9401BA042FAD370BD99
:101160000C0000200549012805D0022803D0B0F565
:10117000806F01D10320087070470000000000203C
:10118000044910B50A68024202D00860FFF7EAFF7E
:1011900010BD0000140401402DE9F84FDFF8B891AC
:1011A0000024A9F1040B23460F2709F1040AABF12F
:1011B000040EC9E00125A5402A40AA427DD1674E10
:1011C000D1F804C0ACEB0608B44532D014DCBCF155
:1011D000030F3AD009DCBCF1000F2AD0BCF1010F9B
:1011E0001CD0BCF1020F31D11DE0BCF1110F17D0A2
:1011F000BCF1120F2AD119E0B8F5881F19D006DC0E
:10120000B8F5803F15D0B8F5801F1FD111E0B8F5B3
:10121000001F0ED0B8F5041F18D10AE0CB6815E006
:10122000CB681B1D12E0CB6808330FE0CB680C3392
:101230000CE08B682BB1012B4FF0080303D0456104
:1012400004E0042302E0056100E00023FF2A01D846
:10125000064601E000F104064FEA840501D9A5F134
:101260002005D6F8008007FA05FC28EA0C0803FAE6
:1012700005F548EA0508C6F800804D68ED0062D51E
:10128000374DAE6946F00106AE61AD6924F0030644
:1012900005F001050095334D06EB050CDCF8085010
:1012A000A607360F07FA06F825EA0805DFF8B88022
:1012B000404503D14FF0000817E044E0DFF8AC8070
:1012C000404502D14FF001080FE0DFF8A48040450F
:1012D00002D14FF0020808E0DFF89880404502D1C3
:1012E0004FF0030801E04FF0040808FA06F848EA56
:1012F0000508CCF808804D68D9F80060ED024D462D
:1013000001D5164300E096432E604D68DAF8006080
:10131000AD02554601D5164300E096432E604D6858
:10132000DBF80060AD035D4601D5164300E096434F
:101330002E604D68DEF80060ED03754601D516435A
:1013400000E096432E60641C0D682A46E5407FF459
:1013500031AFBDE8F88F0000080401400000111013
:10136000001002400000014000080140000C014054
:1013700000100140001401400AB1016170470904E6
:10138000FBE7000001488068704700000C00002067
:101390000248816802781144816070470C00002087
:1013A000074810B5016841F010010160032000F00A
:1013B00075F80F2000F006F800F024F8002010BDAA
:1013C0000020024070B50D4D04464FF47A71287824
:1013D000B1FBF0F00A490968B1FBF0F000F0C9FD7B
:1013E00048B9102C07D200222146501E00F036F8D2
:1013F00000206C6070BD012070BD00000C0000205A
:10140000180000200C4808B5816941F00101816194
:10141000816901F001010091C16941F08051C16110
:10142000C06900F0805000900448416821F0E061FC
:1014300041F00071416008BD001002400000014011
:10144000002809DB00F01F020121914040098000C3
:1014500000F1E020C0F8001170470000F0B40E4B1E
:101460001B680C46C3F30223C3F10705042D00D902
:101470000425191D072901D2002300E0DB1E0126E7
:1014800006FA05F1491E214099409E40761E1640FD
:101490003143F0BC02F09EBB0CED00E0064900F0C9
:1014A000070208684FF6FF03184040EA0220034A8B
:1014B00010430860704700000CED00E00000FA05E2
:1014C000014901200862704700000E4210B5014634
:1014D0000020234C012922D0022939D010291DD106
:1014E00061682268D20119D51E48C1F38342C9033D
:1014F000805C0AD561681B4AC1F34041921E515C71
:10150000194AB2FBF1F1484301E0184948436168C8
:10151000490203D440000321B0FBF1F010BD226A60
:10152000C2F30121012903D1920701D5C80310BDDF
:10153000022905D1626A920702D549F6404010BDE2
:101540000329FCD121688903F9D54FF2244010BD4D
:1015500000F030F96168C1F38131491C4900DBE7D3
:10156000001002403C52000800127A0000093D00C1
:101570002DE9F84305460078354CC00754D0E069A2
:101580000026C00008D4E06940F08050E061E069C6
:10159000012600F0805000902E480168C90512D441
:1015A0000168804641F480710160FFF7EBFE074659
:1015B00005E000BFFFF7E6FEC01B642823D8D8F87B
:1015C0000000C005F6D5206A10F4407021D0A9882B
:1015D00001F4407181421CD0206A1F49012220F48D
:1015E00040700A6000220A602062C00711D0FFF735
:1015F000C9FE074641F2883808E000BFFFF7C2FE87
:10160000C11B414502D90320BDE8F883206A800749
:10161000F4D5206A696820F44070084320621EB146
:10162000E06920F08050E0612878800705D5606887
:10163000A96820F44040084360602878C00605D5BA
:101640006068E96820F48000084360600020DBE700
:101650000010024000700040400442422DE9F04773
:101660000F46050061D0434E306800F00700B842D5
:1016700009D2306820F0070038433060306800F04D
:101680000700B84251D128683B4C810712D540076A
:1016900003D5606840F4E06060602878000703D5F7
:1016A000606840F4605060606068A96820F0F000F5
:1016B000084360602878C00728D06868012810D0E7
:1016C0002168022810D0890700292EDA616821F0EC
:1016D000030101436160FFF755FE804641F28839FE
:1016E0000DE021688903EFE78901EDE7FFF74AFE86
:1016F000A0EB0801494502D90320BDE8F0876068E6
:10170000696800F00C00B0EB810FEFD1306800F099
:101710000700B8420BD9306820F00700384330602A
:10172000306800F00700B84201D00120E5E72878D2
:10173000400705D56068E96820F4E0600843606010
:101740002878000706D56068296920F4605040EACF
:10175000C100606000F03EF86168084AC1F30311FF
:10176000515CC8400649086006480068FFF72AFE39
:101770000020C2E700200240001002404C52000846
:101780001800002010000020014800687047000089
:10179000180000200448054900684968044AC1F35C
:1017A0000221515CC8407047180000200010024020
:1017B0005C5200080448054900684968044AC1F3BE
:1017C000C221515CC8407047180000200010024040
:1017D0005C5200080E4A51680E4801F00C03042BBD
:1017E00011D0082B0FD10C48C1F38343C903C05C4F
:1017F0000AD55168084AC1F34041921E515C054A1E
:101800005043B0FBF1F07047044948437047000073
:101810000010024000127A002A52000800093D0020
:101820002DE9F84F040070D02078C04DC00749D092
:101830006868C0F38100012807D06868C0F38100A0
:10184000022809D16868C00306D52868800339D505
:1018500060680028E7D035E06068B0F5803F0BD0C5
:1018600010B1B0F5A02F11D0286820F48030286086
:10187000286820F4802002E0286840F48030286046
:10188000606890B1FFF77EFD06460AE0286840F4E4
:1018900080202860F0E700BFFFF774FD801B6428FC
:1018A00073D828688003F7D50CE0FFF76BFD064678
:1018B00005E000BFFFF766FD801B6428F0D82868AC
:1018C0008003F7D420789A4E80074FF001094FF03B
:1018D000000839D5686810F00C0F07D06868C0F3AD
:1018E0008100022809D16868C00306D428688007EF
:1018F00014D52069012808D110E02069B0B1C6F8DC
:101900000090FFF73FFD074605E00AE1FFF73AFDCB
:10191000C01B0228C4D828688007F7D528686169E9
:1019200020F0F80040EAC10028600DE0C6F8008011
:10193000FFF728FD074604E0FFF724FDC01B02283F
:1019400023D828688007F7D4207800072CD5794859
:10195000A169D9B1C0F80090FFF714FD074604E073
:10196000FFF710FDC01B02280FD8686A8007F7D563
:1019700071484FF4FA510068B0FBF1F0009000BFDD
:101980000098411E0091FAD20EE080E0C0F800807D
:10199000FFF7F8FC074604E0FFF7F4FCC01B022841
:1019A00075D8686A8007F7D42078400760D5E86961
:1019B0000027C00008D4E86940F08050E861E86979
:1019C000012700F0805000905C480168C90513D4DD
:1019D0000168834641F480710160FFF7D3FC8246C1
:1019E00006E000BFFFF7CEFCA0EB0A0064284ED84B
:1019F000DBF80000C005F5D5E06801280AD008B181
:101A0000052813D0286A20F001002862286A20F0F7
:101A1000040002E0286A40F001002862E06841F218
:101A2000883B98B1FFF7AEFC82460BE0286A40F095
:101A300004002862EEE700BFFFF7A4FCA0EB0A0158
:101A400059455AD8286A8007F6D50CE0FFF79AFC6A
:101A5000824605E0FFF796FCA0EB0A0159454CD8F9
:101A6000286A8007F6D41FB1E86920F08050E86149
:101A7000E06988B36968C1F38101022944D0022872
:101A8000C6F8608004D0FFF77DFC044638E034E0FF
:101A9000FFF778FC074604E0FFF774FCC01B022840
:101AA0002BD828688001F7D4206AB0F5803F05D193
:101AB0006868A16820F4003008436860D4E9080130
:101AC0000843696821F4741108436860C6F860909F
:101AD000FFF758FC044606E025E000BFFFF752FC84
:101AE000001B022809D828688001F7D51BE000BF39
:101AF000FFF748FC001B022802D90320BDE8F88F3D
:101B000028688001F4D40EE00128F7D06868226AC2
:101B100000F48031914204D1616A00F4701088426F
:101B200001D00120EAE70020E8E7000000100240B1
:101B30000000424280044242180000200070004031
:101B400010B5044600680A4988420FD109490120AE
:101B500000220870091D204600F02EF80549204695
:101B60000022BDE81040491C00F04DB810BD000037
:101B70000028004001000020704710B504460068AE
:101B80000168C90717D04168C90714D040684007E9
:101B9000204607D5FFF7F0FF21686FF0040048608A
:101BA000042002E0FFF7CCFF012060742068416848
:101BB00021F00101416010BDF8B505004FF00000B3
:101BC00016460C46009006D02CB1002269462846E5
:101BD00000F019F808B10120F8BD287B2070E87BDF
:101BE000E070697B6170A97BA17056B101F0AAFB1E
:101BF000E070607801F0A6FB6070A07801F0A2FBB5
:101C0000A0700020F8BD2DE9F04791460C465FEA30
:101C100000084AD084B3D8F800004068400744D494
:101C2000404601F034FC4FF461620546B0FBF2F12E
:101C3000B0FBF2F302FB13503C23B0FBF3F0B5FB17
:101C4000F2F6607002FB1650B0FBF3F203FB1200D9
:101C5000A070182931D31820B1FBF0F7B1FBF0F2D6
:101C600000FB12102070404601F00AFC411C04D019
:101C7000A84202D9461B02E017E04FF0FF36A7EB5F
:101C8000071000EB4000C0EB001005EBC015294623
:101C9000404601F04BFC40B9701C01D0711900E0C6
:101CA0003146404601F02EFC10B10120BDE8F0871E
:101CB0003946404601F051FB00E02170B9F1000FB8
:101CC0000BD0207801F03EFB2070607801F03AFBE9
:101CD0006070A07801F036FBA0700020E6E70000FD
:101CE00070B5040003D0607C002610B105E001202F
:101CF00070BD2674204600F03DF802206074204636
:101D000000F01AF9042550BB204601F07DFB30BBE2
:101D10002068416821F007014160A06820B11448A3
:101D2000016821F0010101601148001F0168A268EB
:101D300021F46071114301606068411C04D10120ED
:101D4000FFF7C4FB58B1401E2268C0F30341916005
:101D5000216880B2C860204601F070FB08B165744C
:101D6000C5E7E67301206073A0736074002070BD46
:101D7000306C004008B500680F4988421BD1FFF75E
:101D80009FFB0E48C16941F00061C161C0690C4907
:101D900000F000600090012008600022114603203E
:101DA000FFF75CFB0320FFF74BFB06480068016868
:101DB00041F00101016008BD002800400010024010
:101DC0003C044242680000202DE9F0410D46040029
:101DD0003BD0C5B3207C01283AD04FF0010884F8ED
:101DE000108002206074E87872B301F0A2FAE07308
:101DF000687801F09EFA6073A87801F09AFAA073EF
:101E0000C2B2617BE07B01F052FB20732870204658
:101E100001F03DFB4FF46161B0FBF1F100251829A1
:101E20002DD91822B1FBF2F1A1EB011101EB410117
:101E3000C1EB011100EBC1163146204601F076FBE3
:101E40000427C8B90BE000E004E00120BDE8F08100
:101E50000220FBE7E07368786073A878CFE720463C
:101E600001F00EFB411C0AD0B04208D206490144E1
:101E7000204601F047FB10B167742574E5E784F84C
:101E8000118025740020E1E7805101002DE9F04127
:101E90000D46040024D01DB3207C012823D04FF030
:101EA000010884F81080022060742878EAB101F0FB
:101EB00040FA4FF4616100FB01F6687801F039FAED
:101EC000C0EB001006EB8006A87801F032FA351856
:101ED0002946204601F02AFB0026042710BB0FE00C
:101EE0000120BDE8F0810220FBE74FF46161484327
:101EF0006978C1EB011100EB8100A9784518E7E78B
:101F00002068416821F005014160204601F0B8FADF
:101F1000411C0AD0A84208D206490144204601F0DB
:101F2000F1FA10B167742674DAE784F81180267428
:101F30000020D6E78051010070B504000AD0206867
:101F4000416821F008014160FFF71CFA05464FF493
:101F50007A7608E0012070BDFFF714FA401BB0420A
:101F600001D9032070BD206840680007F4D5002027
:101F700070BD10B5401EB0F1807F01D3012010BDAF
:101F80004FF0E02460610F21601701F023FE002074
:101F9000A06107202061002010BD7047704700003D
:101FA00070B590F83C20012A26D0012480F83C40EE
:101FB000022280F83D2003685A689D6822F070066E
:101FC0000A6832435A600D4B02689A4208D0B2F157
:101FD000804F05D00A4B9A4202D00A4B9A4204D154
:101FE000496825F080031943916080F83D40002145
:101FF00080F83C10084670BD022070BD002C0140E6
:10200000000400400008004010B5040003D094F81C
:102010003D0010B107E0012010BD002084F83C0015
:10202000204600F01FF8022084F83D00211D2068A2
:1020300001F0DEFA012084F8460084F83E0084F8BE
:102040003F0084F8400084F8410084F8420084F89E
:10205000430084F8440084F8450084F83D000020E3
:1020600010BD000000B585B00021009101910291E2
:1020700003910068B0F1804F28D11548C16941F043
:102080000101C161C16901F001010491816941F05F
:10209000040181618069694600F0040004904FF4F6
:1020A000004000900B48FFF777F80B48416821F497
:1020B000407141F0E06141F48071416000221146BD
:1020C0001C20FFF7CBF91C20FFF7BAF905B000BDC3
:1020D00000100240000801400000014070B50446B5
:1020E00090F83C000025012817D0012684F83C60B8
:1020F000022084F83D002068826822F0770222F4F2
:102100007F4282600868502838D00DDC20284FD0EC
:1021100005DC90B3102811D14AE0022070BD3028B0
:1021200046D040280AD13BE060282FD070280DD03F
:10213000B0F5805F03D0B0F5005F12D0012584F8C0
:102140003D60002084F83C00284670BDCB68D1E992
:102150000121206801F095FA2068816841F077013B
:1021600009E0CB68D1E90121206801F08AFA2068F2
:10217000816841F480418160E1E719E0CA684968FB
:10218000206801F090FA5021206806E0CA6849688A
:10219000206801F0C5FA6021206801F07CFACEE7E2
:1021A000CA684968206801F07EFA40212068F4E797
:1021B000226801461046F0E770B50068B0F1804F24
:1021C00012D1124C124D207801280ED002280BD1CA
:1021D0000021104800F036FA686000210D4800F038
:1021E0004DF92078401C207070BD0021094800F096
:1021F00029FA2860074801680A6A22F00A020A627E
:102200000068016A41F002010162EAE71C00002057
:102210007C0600207C0000202DE9F041054690F866
:102220003C0000260C46012810D0012085F83C0017
:1022300072B1042A1CD0082A2CD00C2A50D00126B6
:10224000002085F83C003046BDE8F0810220FBE725
:10225000D4E90012E368286801F036FA2868816939
:1022600021F00C01816128688169A26811430FE0A7
:10227000D4E90012E368286801F064FA28688169EB
:1022800021F44061816128688169A26841EA0221E4
:102290008161D5E72868D4E9002C277B036A016AAD
:1022A00021F480710162C16923F4007321F00301FC
:1022B00041EA0C0121F0F00C39074FF400774CEAA9
:1022C000116107EA02221A43C16102622868C169EA
:1022D00021F00C01C1612868C169A26811432BE09B
:1022E0002868D4E90021E768036AD0F820C02CF4FC
:1022F000805CC0F820C0D0F81CC023F400532CF43C
:10230000407C4CEA012121F4704C4FF6FF7101EA48
:1023100007314FF4005741EA0C0107EA02321A4331
:10232000C16102622868C16921F44061C161286805
:10233000C169A26841EA0221C16181E710B50400C8
:1023400003D094F83D0010B107E0012010BD00203B
:1023500084F83C00204600F01EF8022084F83D007E
:10236000211D206801F044F9012084F8460084F81A
:102370003E0084F83F0084F8400084F8410084F86F
:10238000420084F8430084F8440084F8450084F84F
:102390003D00002010BD704730B50446002551B106
:1023A00004290DD0082910D094F8410094F8452054
:1023B000012811D10EE094F83E0094F84220F7E78E
:1023C00094F83F0094F84320F2E794F8400094F822
:1023D0004420EDE7012A01D0012030BD022059B18F
:1023E000042912D0082919D084F8410084F8450046
:1023F0000C2938D0012534E084F83E0084F84200EE
:102400002068C26842F0020210E084F83F0084F8BD
:1024100043002068C26842F0040207E084F84000EC
:1024200084F844002068C26842F00802C2600122B9
:10243000206801F019F90E492068884208D0B0F1EF
:10244000804F05D00B49884202D00B49884204D105
:10245000816801F00701062903D0016841F00101FC
:102460000160284630BD2068C26842F01002DDE7F6
:10247000002C0140000400400008004070B50D0031
:1024800004464FF0000607D0042D0AD0082D0DD0C9
:102490000C2D10D001262FE02068C16821F0020128
:1024A0000DE02068C16821F0040108E02068C168DF
:1024B00021F0080103E02068C16821F01001C1602B
:1024C00000222946206801F0CFF82068016A41F215
:1024D0001112114207D1016A9210114203D1016811
:1024E00021F001010160012045B1042D09D0082D22
:1024F0000AD004F8410F2071304670BD04F83E0F39
:10250000F9E704F83F0FF6E704F8400FF3E72DE989
:10251000F04104460068C66805694FF00007A90746
:1025200013D5B10711D5F91E01610120207720686C
:1025300080698007204602D0FFF73EFE04E000F0ED
:102540007EF8204600F07CF82777680716D57007DC
:1025500014D521686FF004000861022020772068FC
:10256000806910F4407F204602D0FFF725FE04E08A
:1025700000F065F8204600F063F82777280715D5A6
:10258000300713D521686FF0080008610420207718
:102590002068C0698007204602D0FFF70DFE04E0E6
:1025A00000F04DF8204600F04BF82777E80616D5E6
:1025B000F00614D521686FF010000861082020771C
:1025C0002068C06910F4407F204602D0FFF7F4FD78
:1025D00004E000F034F8204600F032F82777E807EE
:1025E00008D0F00706D021686FF00100086120468E
:1025F00000F027F8280608D5300606D521686FF0C8
:10260000800008612046FFF7C8FC680608D5700600
:1026100006D521686FF040000861204600F027F8D9
:10262000A8060AD5B00608D521686FF02000086119
:102630002046BDE8F041FFF7B1BCBDE8F08170472E
:10264000704770470246002041B1042909D008298B
:102650000AD00C2901D11068006C70471068406BDB
:1026600070471068806B70471068C06B7047704788
:10267000704710B504460068406994F84110C0F3F3
:10268000C010212911D180B12068143050E8001FFA
:1026900021F0800140E80012002AF5D1A06B08B1BA
:1026A000FEF7CEFB204601F00EF92068406994F851
:1026B0004210C0F38010222911D180B1206814305B
:1026C00050E8001F21F0400140E80012002AF5D137
:1026D000E06B08B1FEF7B4FB204601F0CDF8002016
:1026E00010BD7047F8B5016804460868CA684B69B0
:1026F00010F00F0F4FF0000559D003F0010602F45F
:102700009077374365D0C10705D0D10503D5616CFB
:1027100041F001016164410705D5D90703D0616C1F
:1027200041F002016164810705D5D90703D0616CCE
:1027300041F004016164010707D502F02001314333
:1027400003D0616C41F008016164616C00293AD0EA
:10275000800604D5900602D5204601F0C2F8206814
:102760004069616CC0F38010090700D460B3204653
:1027700001F082F820684069400621D520681430B5
:1027800050E8001F21F0400140E80012002AF5D176
:10279000E06BA8B16D494163E06BFEF775FB002863
:1027A00011D0E06B416B01B0BDE8F04008478306F3
:1027B0000FD593060DD52046BDE8F84001F091B83D
:1027C0002046FFF78EFFF8BD2046FFF78AFF6564BD
:1027D000F8BD266B2023012E7CD1C6067AD5D606FD
:1027E00078D508684868009048694FF002064006AE
:1027F00040D5E16B086840680004000CE8D0A28D69
:102800008242E5D9E085886920282DD020680C30E7
:1028100050E8001F21F4807140E80012002AF5D131
:102820002068143050E8001F21F0010140E8001238
:10283000002AF5D12068143050E8001F21F0400133
:1028400040E80012002AF5D184F842302563206860
:102850000C3050E8001F21F0100140E80012002A5F
:10286000F5D1E06BFEF7ECFA6663A08DE18D401ABE
:1028700081B22AE0A08DE18D401A81B2E08D00285E
:10288000A6D00029A4D022680C3252E8000F20F410
:10289000907042E80007002FF5D12068143050E80E
:1028A000002F22F0010240E80027002FF5D184F824
:1028B0004230256320680C3050E8002F22F01002CF
:1028C00040E80023002BF5D166632046FFF7D0FED9
:1028D000F8BDFFE705062BD5150629D594F841006C
:1028E0002128F5D1A068B0F5805F01D12069B0B191
:1028F000206A411C2162216800784860E08C401EFB
:102900000004000CE084E3D12068C16821F080015C
:10291000C1602068C16841F04001C160D8E7206A09
:102920000088C0F308004860206A801C2062E5E748
:102930004006CDD55006CBD5CA68204622F04002CD
:10294000CA6084F8413000F013F9C1E77B37000812
:1029500070B5040004D094F84100002510B106E0E1
:10296000012070BD84F84050204600F023F8242058
:1029700084F841002068C16821F40051C1602046FC
:1029800001F010F82068016921F49041016120688C
:10299000416921F02A0141612068C16841F4005178
:1029A000C1606564202084F8410084F842006563BA
:1029B000002070BDF0B585B000240094019402940D
:1029C00003940646344F0368344902200322344DF1
:1029D000BB423CD18B6943F480438B618B6903F428
:1029E000804304938B6943F004038B6189690392EC
:1029F00001F0040104910102CDE900106946284666
:102A0000FEF7CAFB2815CDE9000469462846029462
:102A1000FEF7C2FB244D2348C5E900048020C5E928
:102A200002402C616C61AC612846EC61FEF722FB30
:102A300008B1FDF7C9FFF5630022114625206E623B
:102A4000FEF70CFD2520FEF7FBFC05B0F0BD174E90
:102A5000B342FAD1CB6943F40033CB61CB6903F4C1
:102A6000003304938B6943F004038B6189690392FB
:102A700001F0040104910421CDE9001069462846C3
:102A8000FEF78AFB0820CDE9000469462846029437
:102A9000FEF782FBD9E70000003801400010024039
:102AA0000008014058000240B801002000440040E6
:102AB00090F84230202B01D00220704721B11AB18A
:102AC0000023036300F0CABF0120704770477047BE
:102AD0002DE9F843044690F84100984616460D4605
:102AE000202802D00220BDE8F88385B17EB1002005
:102AF0006064212084F84100FEF744FCA6848146EE
:102B0000E684A0682027B0F5805F02D003E00120B2
:102B1000E9E7206910B12E4600250EE000260CE002
:102B20008021204600F0E2FFA8B9C6B116F8010BDB
:102B300021684860E08C401EE084E08C4B464FF0FA
:102B40000002CDF800800028EAD14FF04001204675
:102B500000F0CCFF40B184F841700320C3E735F8A2
:102B6000020BC0F30800E3E784F841700020BAE7E5
:102B70007047FEE73EB5002411480094019402948A
:102B80000E498460016004730475012505614FF4EA
:102B900060214460C161FDF79BFF08B1FDF714FFA0
:102BA0000720CDE90005694602940548FDF70EFFB0
:102BB000002801D0FDF708FF3EBD000000240140C1
:102BC00038000020094808B5416941F00101416120
:102BD0004069002200F00100009011460F20FEF72E
:102BE0003DFCBDE808400F20FEF72ABC0010024063
:102BF00070B586B000200090019002900390354897
:102C0000816941F010018161816901F01001049135
:102C1000816941F020018161816901F02001049105
:102C2000816941F004018161816901F0040104912D
:102C3000816941F0080181618069012200F008008A
:102C4000254D5403049021462846FEF795FB234E5C
:102C5000012273213046FEF78FFB002261113046BE
:102C6000FEF78AFB009401240194029469462846E9
:102C70000394FEF791FA40F27310CDE900040320AB
:102C8000CDE9024069463046FEF786FA40F203403D
:102C900000901348CDE9010469461248FEF77CFA1A
:102CA000002211460620FEF7D9FB0620FEF7C8FBDE
:102CB000002211460720FEF7D1FB0720FEF7C0FBDC
:102CC000002211462820FEF7C9FB2820FEF7B8FB9A
:102CD00006B070BD00100240001001400008014025
:102CE00000002110000C01401CB50024194801947B
:102CF000174900940160611EC0E90114FEF7F0FF5E
:102D000008B1FDF761FE20208DF8040025208DF824
:102D100005008DF80640012201A90E48FFF7B6F81C
:102D200008B1FDF751FE01208DF800008DF801007B
:102D300029208DF8020024208DF803000122694625
:102D40000448FFF741F8002801D0FDF73DFE1CBD07
:102D5000002800406800002010B58AB000242248F6
:102D6000049405940694079408940994009401949B
:102D700002944FF08041039401604721C0E901149F
:102D80004FF6FF71C0E9031480218161FFF73CF920
:102D900008B1FDF719FE4FF48050049004A91248C1
:102DA000FFF79CF908B1FDF70FFE0F48FFF7C6FAD1
:102DB00008B1FDF709FE089408A90B480994FFF72C
:102DC000EFF808B1FDF700FE0120CDE900400294C4
:102DD0000022694604480394FFF71EFA002801D038
:102DE000FDF7F2FD0AB010BD7C00002010B5114CBB
:102DF0000F480C2120604FF4E13060600020A0609B
:102E0000E060C4E90401A061E0612046FFF7A0FD95
:102E100008B1FDF7D9FD2068C16841F01001C1601B
:102E200004496422BDE8104064390248FFF740BEFF
:102E300000380140280100200C4810B50A49016003
:102E40004FF4E1314160002181600C22C160C0E992
:102E500004128161C161FFF77BFD002803D0BDE84A
:102E60001040FDF7B1BD10BD0044004070010020CE
:102E7000FEE7FEE730B40021084B0A465FF0000091
:102E800003EBC004401CC0B262548028F8D3491C34
:102E9000C9B20829F2D330BC00F00EB9FC01002001
:102EA00030B1012807D100215FF0A70000F008BA77
:102EB0000021A620FAE7704710B558B1012810D1BB
:102EC0000021C02000F0FCF90021A020BDE8104046
:102ED00000F0F6B90021C82000F0F2F90021A1208D
:102EE000F4E710BD2DE9FE4F151ACDE900104FF0A3
:102EF00000085E1A47464FF0FF30002D02DD4FF00C
:102F0000010102E003D14FF000018B4602E083464D
:102F1000C5F10005002E02DD4FF0010002E003D1F3
:102F20004FF00000824602E08246C5F10006B5423D
:102F300001DD2C4600E03446601C4FF00009029091
:102F400019E000980C9AC1B20198C0B200F018F8CC
:102F5000A8443744A04504DD0198A8EB0408584470
:102F60000190A74203DD00983F1B5044009009F1F7
:102F700001001FFA80F902998945E2DBBDE8FE8F66
:102F800030B5CC0801F0070301259D40EBB2064D9A
:102F900005EBC005C808285C0AB1184302E063EAE3
:102FA0000000C043285530BDFC01002010B5414C45
:102FB000002210212046FEF7DFF9C820FEF7C0F8F6
:102FC000012210212046FEF7D7F90021AE2000F0A3
:102FD00077F90021084600F073F90021102000F075
:102FE0006FF90021402000F06BF90021812000F0F2
:102FF00067F90021CF2000F063F90021A12000F043
:103000005FF90021C82000F05BF90021A62000F044
:1030100057F90021A82000F053F900213F2000F0CB
:103020004FF90021D32000F04BF90021084600F0B1
:1030300047F90021D52000F043F90021802000F05D
:103040003FF90021D92000F03BF90021F12000F0E8
:1030500037F90021DA2000F033F90021122000F0C6
:103060002FF90021DB2000F02BF90021402000F097
:1030700027F90021202000F023F90021022000F090
:103080001FF900218D2000F01BF90021142000F011
:1030900017F90021A42000F013F90021A62000F068
:1030A0000FF9FFF7E7FE0021BDE81040AF2000F068
:1030B00007B900000008014070B5114E002400BFA0
:1030C00004F1B000C0B2002100F0FAF80021084677
:1030D00000F0F6F80021102000F0F2F85FF0000593
:1030E00006EBC5000121005D00F0EAF86D1CEDB2B1
:1030F000802DF5D3641CE4B2082CE1D370BD000030
:10310000FC0100202DE9FC4F1C460E4682468B46F2
:103110000190082B0DD0600700D0012000EBD400F7
:1031200061084843C0B28146203AD0B200900020E6
:103130004BE00620F7E7082C13D00C2C18D0102CED
:103140001BD0182C44D10098234900EBC00000BFCD
:1031500001EB8001002711F80850E80712D00B9A04
:1031600013E000981D4900EB400001EB4001F1E73E
:1031700000981B4900EB4000EAE71A49009801EB70
:103180000011E7E70B9828B3002231465046FFF7BD
:10319000F7FE761C7F1C6D08FFB2F6B2082FDCD359
:1031A0000AF1010000F0FF0A082C0AD00199AAEBED
:1031B0000100B0EB540F04D10BF108008A4600F077
:1031C000FF0B08F101005E46C0B280464845B2D30D
:1031D000BDE8FC8F0122D8E7F05E000864520008C9
:1031E0008C540008005900082DE9FF4F82B080463A
:1031F000019092460C464FF000098B46580700D0CC
:10320000012000EBD3000590002032E000262BE0E7
:103210000F98002510F8097009F101001FFA80F9D4
:10322000F80701D0109A02E0109848B30022214616
:103230004046FFF7A5FE641C6D1C7F08EDB2E4B2AA
:10324000082DEDD308F10100019900F0FF08A8EB6B
:103250000101514505D10BF10800DDF8048000F0B3
:10326000FF0B761C5C46F6B25645D1D30098401C45
:10327000C0B2009005998842C8D306B0BDE8F08F6F
:103280000122D4E72DE9F8411E461546884604463A
:10329000079F0BE03346414620460097FFF732FF79
:1032A000082E0AD004EB5600C4B26D1C2A78A2F195
:1032B00020005E28EED9BDE8F881A41DE4B2F4E751
:1032C00070B51A4E054609B1012200E00022202106
:1032D0003046FEF751F8002240213046FEF74CF808
:1032E0000024002201213046FEF746F8280601D5C9
:1032F000012200E0002202213046FEF73DF80122C3
:1033000011463046FEF738F86806641C050EE4B234
:10331000082CE6D3012240213046FEF72DF8304636
:10332000BDE8704001222021FEF726B800080140C8
:103330007047010901EB810100F00F0000EB410033
:10334000C0B27047002102E00A38C0B2491C0A2806
:10335000FAD2090740EA116070472DE9F0410446AE
:103360000025C07B627BA37B42E0012A16D0032AA2
:1033700014D0052A12D0072A10D0082A0ED00A2A03
:103380000CD00C2A0AD0042A10D0062A0ED0092A02
:103390000CD00B2A0AD0022A0DD028E01F2B0CD308
:1033A0000C2A05D101221346401C20E01E2B04D319
:1033B0000123521C1BE01C2B02D203F1010316E077
:1033C00011D183B29E0710D16426B3FBF6F706FB3A
:1033D000173636B94FF4C876B3FBF6F706FB17334A
:1033E0001BB91D2303E01D2B01D1032201236D1CFA
:1033F0008D42BAD3D1B2E0736173DAB2A27300F036
:1034000056F82073BDE8F08170B50446FDF7BAFFA9
:1034100005464FF47A7606E0FDF7B4FF401BB04254
:1034200001D9032070BD206840688006F4D520686B
:10343000416841F010014160002070BD70B5044644
:103440000068416821F010014160FDF79BFF0546CF
:103450004FF47A7607E000BFFDF794FF401BB042BF
:1034600001D9032070BD206840688006F4D5002093
:1034700070BD00000148FEF780BB0000680000201E
:103480000168086A496A89B241EA004070470068E9
:1034900081698AB2C1698BB2816989B28A4203D0DB
:1034A000C06961F31F40704743EA02407047F0B5BE
:1034B0006424C1EBC1030927A500072603EB011310
:1034C0000329B3FBF7F100F5FA60114401440AD275
:1034D000401EB0FBF4F201EB9001B0FBF5F0891A4D
:1034E0000844001D08E0B0FBF4F201EB9001B0FBD2
:1034F000F5F0891A0844801CB0FBF6F106FB1100B8
:10350000C0B2F0BD70B50D4606460024FFF77CFF43
:1035100048B93168280C08623168A8B24862304660
:10352000FFF78CFF00B10124204670BD70B50D4639
:1035300006460024FFF768FF48B93168280C886107
:103540003168A8B2C8613046FFF778FF00B10124A6
:10355000204670BD7047FDF71BBF30B593B02821E2
:103560006846FCF7F6FD14210AA8FCF7F2FD0024DA
:103570000F940920012110940090119412944FF49B
:10358000803004910691CDE901040225CDE9075070
:103590004FF4E01009906846FEF742F908B172B6A0
:1035A000FEE70F20CDE90A054FF48060CDE90C401D
:1035B00002210AA80E94FEF751F808B172B6FEE790
:1035C00003200F904FF400701090800111900FA80D
:1035D000FDF7CEFF002801D072B6FEE713B030BD74
:1035E000704700000148FEF792BF00007C000020F9
:1035F000F0B50268194B1A4C1A4D4FF080479842AB
:1036000005D0B84203D0A04201D0A84203D122F095
:1036100070064A683243984205D0B84203D0A042AF
:1036200001D0A84203D122F44074CA6822434C69F5
:1036300022F08002224302608A68C2620A688262C3
:10364000984201D109690163012141610169C907FA
:1036500003D0016921F001010161F0BD002C01409E
:10366000000400400008004010B501F01F030121D4
:10367000046A99408C430462016A9A4011430162D2
:1036800010BD10B5846842EA032224F47F440A4343
:103690002243826010BD826822F070020A4342F029
:1036A00007018160704710B5036A046A24F00104C1
:1036B0000462846924F0F00444EA021423F00A024C
:1036C0000A438461026210BD70B5056A046A24F081
:1036D0000104046284690F4EB04208D0B0F1804FFB
:1036E00005D00D4EB04202D00C4EB04203D124F0B2
:1036F0000304144301E044F001041A0724F0F00429
:1037000044EA126225F00A0301F00A0119438261BA
:10371000016270BD002C0140000400400008004020
:1037200010B5036A046A24F010040462846923F06B
:10373000A00324F4704444EA023243EA0111826196
:10374000016210BD30B5046A056A25F010050562F6
:10375000856925F4407545EA022222F470454FF64A
:10376000FF7202EA033224F0A0032A43A02404EAF1
:10377000011119438261016230BD10B5406A002118
:10378000C185C184FEF7ADFF10BD70B5446A2068E5
:10379000406994F84110C0F3C0100025212904D1DC
:1037A00018B1E584204600F08EF82068406994F84E
:1037B0004210C0F38010222904D118B1E5852046BB
:1037C00000F05AF8606C40F0100060642046FEF78C
:1037D00088FF70BD10B50146406A096809684FF05E
:1037E000000289062ED4C28501680C3151E8003FE1
:1037F00023F4807341E80034002CF5D101681431C2
:1038000051E8003F23F0010341E80034002CF5D1DA
:103810000168143151E8003F23F0400341E80034CF
:10382000002CF5D1202180F84210016B012909D12B
:1038300001680C3151E8003F23F0100341E80034E7
:10384000002CF5D14263016B012902D0FFF73EF94C
:1038500010BD818DFEF70CFF10BD10B5406A01212F
:103860004163016B012902D0FFF731F910BD818D51
:103870004908FEF7FDFE10BD01680C3151E8002F2C
:1038800022F4907241E80023002BF5D10168143135
:1038900051E8002F22F0010241E80023002BF5D16E
:1038A000016B012909D101680C3151E8002F22F088
:1038B000100241E80023002BF5D1202180F84210AE
:1038C00000210163704701680C3151E8002F22F09C
:1038D000C00241E80023002BF5D1202180F84110DF
:1038E000704708B590F84210222901D0022008BD87
:1038F00082684FF480539A4201D1016921B1816AF3
:103900009A421BD04AB10AE00268816A5268C2F347
:1039100008020A80816A891C08E0026972B10268A3
:10392000526802F07F020A70816A491C8162C18D6F
:10393000491E0904090CC18503D01BE002685268C6
:10394000F1E70168CA6822F02002CA600168CA680B
:1039500022F48072CA6001684A6922F001024A6159
:10396000202180F8421000214163026B012A03D01C
:10397000FFF7ACF8002008BD016301680C3151E885
:10398000002F22F0100241E80023002BF5D101683E
:103990000A68D20602D50A6849680091818DFEF74F
:1039A00067FEE7E770B5044600680169E26821F444
:1039B0004051114301612169A068084361690843CE
:1039C0002168CA6841F20C639A430243CA602068C6
:1039D0004169A26921F44071114341611E49206887
:1039E000884202D1FDF7E6FE01E0FDF7D3FE00EBD1
:1039F000C00101EB0012606864218000B2FBF0F3AB
:103A0000B3FBF1F36FF018067343B2FBF0F5B2FBB2
:103A1000F0F605EB8305322303EB0515B5FBF1F555
:103A2000B6FBF1F605F0F00505EB0615B2FBF0F676
:103A3000B2FBF0F0B0FBF1F06FF01802504306EB70
:103A4000800003EB0010B0FBF1F0216800F00F00E4
:103A50002844886070BD00000038014038B581629C
:103A600004468285002013466064222284F84220A6
:103A7000E56B1B4AAA62E56B1A4AEA62E56B1A4AD1
:103A80002A63E26B50630A462168E06B091DFDF76B
:103A90001FFB2068016840680090206948B12068D9
:103AA0000C3050E8001F41F4807140E80012002AF9
:103AB000F5D12068143050E8001F41F0010140E8C2
:103AC0000012002AF5D12068143050E8001F41F0A0
:103AD000400140E80012002AF5D1002038BD000066
:103AE000D53700085B3800088B3700082DE9F8430C
:103AF000984617460D460446089E24E0701C22D0C6
:103B0000FDF740FCA0EB0800B0421AD8CEB1206807
:103B1000C168490717D5802D15D0402D13D00168F5
:103B2000C94309070FD4016800254068009020466A
:103B3000FFF7A2FE0820606484F840500120BDE831
:103B4000F8830320FBE72068006835EA000004D012
:103B50000020B842D2D00020F1E70120F9E70000B0
:103B60000D4808B500680168C943C9060FD401684B
:103B7000406800900848FEF77CFD084800684068EF
:103B80000749C0F164000870064901200870BDE8CB
:103B900008400148FEF7A6BD28010020B80100201A
:103BA000090000200A000020FEE700000FB4084BC7
:103BB00010B504A902AA039800F0EEF8044602A981
:103BC000002000F080FC204610BC5DF814FB0000D3
:103BD000C74400080907090E002804DB00F1E020B3
:103BE00080F80014704700F00F0000F1E02080F82A
:103BF000141D704702E008C8121F08C1002AFAD13C
:103C000070477047002001E001C1121F002AFBD15C
:103C1000704700002DE9FF5F82B00021DDE904302C
:103C2000020DDDF840B0034318D044F61050A2F264
:103C3000FF3242431514119801281FD0A5EB0B0049
:103C4000401C5FEA000A4FF000064E4FDFF8389143
:103C5000B046504615D5CAF1000413E0119801246E
:103C60004AA3012801D16FEA0B010298119AC0E919
:103C70000031C0E9024206B0BDE8F09FCBF1000080
:103C8000DFE704460021404A491842EB0450CDE9E1
:103C9000001012E0E00707D032463B464046494656
:103CA000FCF773FB8046894632463B461046194670
:103CB000FCF76BFB06460F466410002CEAD1DDE9E9
:103CC0000401DDE90023BAF1000F06DAFCF75DFB21
:103CD00042464B46FCF759FB05E0FCF731FD4246F6
:103CE0004B46FCF72DFD04460E460022284BFCF700
:103CF000AFFD03D84FF0FF30014607E00022254B0F
:103D000020463146FCF79AFAFCF789FD102409E0B9
:103D1000002C0ADB0A220023FCF72CFC039B303228
:103D20001A55641E50EA0102F2D1641C039AC4F1D0
:103D300011031444119A012A03D0012208430DD122
:103D40000AE0084304D000204FF0110B119072E7F5
:103D5000A3EB0B056D1E0DE05B4504DD4FF000028B
:103D600005F1010504E003DA4FF00002A5F10105B9
:103D7000002AECD002981199C0E90231C0E900454F
:103D800079E70000000014400000F03F3000000020
:103D90000000F0430000E03F2DE9FF4F95B09B4647
:103DA0008946064600250FE2252877D100242746BC
:103DB000F84A0121059400E0044316F8013F203B36
:103DC00001FA03F01042F7D130782A2811D06FF0B1
:103DD0002F033078A0F13002092A16D8059A44F052
:103DE000020402EB820203EB42021044761C0590AF
:103DF000EFE759F8042B0592002A03DA504244F405
:103E00000054059044F00204761C30782E2816D118
:103E100016F8010F44F004042A280DD06FF02F0289
:103E20003078A0F13003092B09D807EB870302EBA8
:103E30004303C718761CF3E759F8047B761C3078E7
:103E40006C280FD006DC4C2817D068280DD06A28C3
:103E500014D104E0742810D07A280FD10DE044F476
:103E600000140AE044F4801401E044F44014727831
:103E7000824202D104F58014761C761C30786628C4
:103E80000BD013DC582877D009DC002875D04528E2
:103E9000F6D04628F4D047281AD19DE118E06328CF
:103EA00035D0642879D0652812D195E1702873D077
:103EB00008DC6728F1D069286FD06E280DD06F28F4
:103EC00006D1B5E073282CD0752875D0782874D029
:103ED0005A46179990476D1C75E1C4F302500228A9
:103EE00009D003280DD0D9F8001004280DD00D609A
:103EF00009F1040967E1D9F80010EA17C1E9005295
:103F0000F6E7D9F800100D80F2E70D70F0E719F828
:103F1000041B8DF8001000208DF80100EA460120F6
:103F200003E059F804AB4FF0FF3061074FF0000198
:103F300002D40DE008F101018846B9420FDA80454C
:103F4000F8DB1AF808100029F4D108E008F10101A3
:103F500088468142FADB1AF808100029F6D1059844
:103F60005B46A0EB080721463846179A00F094FA02
:103F7000284400EB080507E04DE029E10DE01AF8C0
:103F8000010B5A4617999047B8F10108F7D25B46E2
:103F900021463846179A13E142E00A220092C4F300
:103FA00002524FF0000A022A08D059F804CB032A23
:103FB0004FEAEC710AD00DE029E02AE009F107018F
:103FC00021F00702F2E802C1914609E00FFA8CFCE9
:103FD0004FEAEC71042A03D14FFA8CFC4FEAEC71E2
:103FE000002907DA0A460021DCF1000C61EB02012E
:103FF0002D2202E0220504D52B228DF80420012277
:1040000003E0E20701D02022F7E7904659E00A21B9
:1040100002E010220DE010214FF0000A00910BE0A9
:1040200010224FF0000A44F004040827009203E035
:1040300008224FF0000A0092C4F30252022A05D06F
:1040400059F804CB0021032A08D009E009F107013F
:1040500021F00702F2E802C1914605E01FFA8CFC4C
:10406000042A01D10CF0FF0C4FF00008220728D5DC
:10407000702806D0009B83F0100353EA0A0305D092
:104080000EE040228DF80420012208E05CEA0102E3
:1040900006D030228DF804208DF8050002229046CB
:1040A000009B83F0080353EA0A030AD15CEA010289
:1040B00001D1620705D530228DF804204FF00108A8
:1040C0007F1E582804D034A003900EA802900DE063
:1040D00036A0F9E753466046009AFCF74BFA84464F
:1040E0000398825C0298401E029002705CEA010014
:1040F000F0D1029806A9081A00F1200A600702D53B
:1041000024F4803400E00127574502DDA7EB0A00C4
:1041100000E0002000EB0A01009005984144401A9D
:104120000590E00306D45B462146179A059800F0F7
:10413000B3F90544002706E001A85A46C05D179967
:1041400090476D1C7F1C4745F6DBE0030CD55B46B2
:104150002146179A059800F09FF9054404E03020A5
:104160005A46179990476D1C0099481E00900029E7
:10417000F5DC08E0029802995A460078491C029141
:10418000179990476D1CBAF10001AAF1010AF1DC00
:1041900065E100000928010030313233343536370B
:1041A0003839616263646566000000003031323383
:1041B0003435363738394142434445460000000023
:1041C00000F058F90544761C307800287FF4ECADF7
:1041D00019B02846BDE8F08F620700D4062709F120
:1041E000070222F0070CFCE80223E14603F0004836
:1041F0005FEA080C02D00FF2702C0DE05FEA045C5D
:1042000002D50FF2682C07E05FEAC47C02D00FF2FF
:10421000602C01E0AFF2700C4FF0FF3823F0004348
:10422000CDF850C065280CD006DC452809D04628BA
:104230001DD047283DD13DE0662818D067287ED1A3
:1042400038E00021112F01DB112000E0781CCDE9BE
:10425000000106A90EA8FFF7DDFCDDE90F010E9AAB
:1042600003910021009207F1010A04914DE04FF003
:1042700000400097CDE9011006A90EA8FFF7CAFC7F
:10428000DDE90F0203920E9B11990022DDF80CA0CC
:104290000093049211B9791C00EB010AB7EB0A00F4
:1042A00004D4C0F1FF3007F1010A0490AAEB070023
:1042B000019044E0012F00DA01270021112F01DDD8
:1042C000112000E03846CDE9000106A90EA8FFF74D
:1042D000A1FCDDE90F010E9A0391002104910092E7
:1042E000BA4621070CD40399514500DA8A46BAF13F
:1042F000010F05DD009AAAF10101515C302908D0B7
:10430000B84202DA10F1040F06DA0121CDE90110FA
:1043100015E0AAF10101E9E7002805DC0499014450
:104320000491AAEB000102E0411C514500DD8A46E0
:104330000499401A401C01904FF000400290200761
:1043400004D40198504501DBCDF8048000208DF89D
:104350004F0002980DF14F07B0F1004F25D02B20F0
:104360000E9002984FF0020800280CDA40420290AA
:104370002D200E9007E00A210298FCF7E5F8303175
:10438000029007F8011DB8F10001A8F10108F2DC64
:1043900002980028EFD1791E0E980870307800F04E
:1043A000200040F0450007F8020D12A8C01B00F1E4
:1043B00007081498007800B1012000EB0A01019869
:1043C00001EBE07105984144401A401E0590E0035E
:1043D00006D45B462146179A059800F05DF805441F
:1043E0001498007818B15A46179990476D1CE0034D
:1043F00024D55B462146179A059800F04DF80544F0
:104400001CE00498002807DBDDE90301884203DD96
:104410000098405C179901E0179930205A46904760
:10442000049805F10105401C04900198401E01907C
:1044300004D12E205A46179990476D1CBAF10001FD
:10444000AAF1010ADDDC05E017F8010B5A461799BD
:1044500090476D1CB8F10001A8F10108F4DC5B463F
:104460002146179A0598ABE62D0000002B000000AE
:10447000200000002DE9F041044600251E461746A5
:10448000880404D405E039462020B0476D1C641E22
:10449000F9D52846BDE8F0812DE9F0410446002514
:1044A0001E469046C80301D5302700E02027880427
:1044B00004D505E041463846B0476D1C641EF9D569
:1044C0002846BDE8F0810A68531C0B6010707047E5
:1044D00070B533251424E1B2E8B20022FEF750FD96
:1044E000641C402CF7DB6D1C802DF3DB70BD0000DD
:1044F000074882B008220188ADF8001080788DF856
:10450000020004480099006802B000F019BA0000E7
:10451000020000200500002010B50446FDF734F924
:104520000349B0FBF1F16143491EFDD210BD00000B
:1045300000093D00032000F001B800007FB5040031
:104540004FF0000001900290039001D0012000E0A4
:104550000020009008231AA21E214120FEF792FE9F
:10456000184819A1027801A8FFF720FB01250823AC
:1045700001AA1E214B200095FEF784FE012C01D0DC
:10458000012000E000200090082311A21E215A20E3
:10459000FEF778FE08230FA21E2167200095FEF784
:1045A00071FE022C01D0012000E0002000901023B9
:1045B0000AA228214620FEF765FEFEF77DFD7FBD9D
:1045C0002D0000001D000020253032640000000096
:1045D0002B00000028636D29000000006261636BFE
:1045E0000000000010B50024034904A0FBF7BCFD47
:1045F00000B10124204610BDC4000020434F4E4EA0
:10460000454354204F4B0D0A0000000010B5002414
:10461000034904A0FBF7A8FD00B10124204610BD0A
:10462000C4000020444953434F4E4E4543540D0AA5
:10463000000000002DE9F7430024444D274626469C
:104640004FF001082878012804D0022807D0032859
:104650001AD009E02E70641E06D5072404E0641CFD
:104660002E70072C00DD0024DDE90001224600F059
:1046700067F9002FE6D00027082CE3D2DFE804F02A
:104680000B17222D38434E592E70DDE900012246CA
:1046900000F056F9EFE79DF80300401CC0B28DF81A
:1046A00003006328CED914208DF80300CAE79DF8D3
:1046B0000100401CC0B28DF801000C28C2D98DF851
:1046C0000180BFE79DF80200401CC0B28DF80200D7
:1046D0001F28B7D98DF80280B4E79DF80400401C6C
:1046E000C0B28DF804001728ACD98DF80460A9E792
:1046F0009DF80500401CC0B28DF805003B28A1D9EB
:104700008DF805609EE79DF80600401CC0B28DF84C
:1047100006003B2896D98DF8066093E79DF80000C7
:10472000401CC0B28DF8000007288BD98DF800809E
:1047300088E7002201A90648FDF7A8FB0022694688
:104740000348FDF741FBBDE8FE83000000000020A8
:10475000680000202DE9F0410024204DDFF8808022
:10476000264627462878012804D0022807D00328A7
:104770001AD009E02F70641E06D5022404E0641CE0
:104780002F70022C00DD0024C820FCF7D9FC204645
:10479000FFF7D4FE002EE5D000266CB1012C11D01D
:1047A000022CDFD1BDE8F0812F70C820FCF7C8FCD7
:1047B0002046FFF7C3FEEFE798F80010491E88F87F
:1047C0000010CFE798F80000401CC0B288F8000045
:1047D0003228C7D9322088F80000C3E70000002043
:1047E0001D0000202DE9F05F0024DFF8F0800D4669
:1047F00006462746A1464FF07E5B4FF0505A00BF59
:1048000098F80010012904D0022908D003291BD0F0
:104810000BE088F80090641E07D5042405E0641CB2
:1048200088F80090042C00DD0024224629463046FA
:1048300000F082F9002FE3D00027052CE0D2DFE85A
:1048400004F00B192A384B0088F8009022462946BC
:10485000304600F071F9EFE73046FBF731FE204AB1
:10486000204BFBF78CFDFBF73EFE06465045C7DAB2
:104870000026C5E73046FBF723FE194A194BFBF724
:10488000DDFCFBF730FE06465946FBF7D1FC5045F0
:10489000B6DD5E46B4E72846FBF712FE104A114B20
:1048A000FBF76DFDFBF71FFE05465045A8DA002516
:1048B000A6E72846FBF704FE094A0A4BFBF7BEFCB5
:1048C000FBF711FE05464FF08141FBF7B1FC504567
:1048D00096DD4FF0814593E7BDE8F09F0000002092
:1048E0009A9999999999B93F034805220168034813
:1048F000006800F021B90000300000202C000020EA
:10490000FCF74EFDFEF729FEFEF772F9FEF75AF9A5
:10491000FEF76CFAFEF720FAFEF7E6F9FEF72AF941
:10492000FEF78AFAFEF742FB0020FEF7B9FA0020F4
:10493000FEF7C2FAFEF79EFA00F002FAFCE700006A
:1049400070B598B014460022069207920892099218
:104950000A920B920C920D920E4605460E920F9201
:10496000109211921292139214921592169214218F
:1049700001A81792FBF7EDFB2A0E5DA106A8FFF731
:1049800015F9C5F307225CA109A8FFF70FF9C5F3D4
:10499000074259A10CA8FFF709F9F2B256A10FA8D6
:1049A000FFF704F9C6F3072253A112A8FFF7FEF898
:1049B000C6F3074250A115A8FFF7F8F80CB1012083
:1049C00000E000200090082306AA14213720FEF7FB
:1049D00059FC012608234AA2142150200096FEF714
:1049E00051FC012C01D0012000E0002000900823A0
:1049F00009AA14215A20FEF745FC082340A21421DD
:104A000064200096FEF73EFC022C01D0012000E05D
:104A10000020009008230CAA14216E20FEF732FC1F
:104A2000032C01D0012000E00020009008230FAAF1
:104A30001E213720FEF726FC082332A21E21462025
:104A40000096FEF71FFC042C01D0012000E000209E
:104A50000090082312AA1E215020FEF713FC082301
:104A600028A21E2164200096FEF70CFC052C01D024
:104A7000012000E000200090082315AA1E216E20CE
:104A8000FEF700FCE8B207280CD2DFE800F01704BC
:104A9000060F111315001CA200E01CA21DA101A805
:104AA000FFF784F8062C0BD001200AE01AA2F5E7E4
:104AB0001AA2F3E71BA2F1E71BA2EFE71BA2EDE7A7
:104AC00000200090082301AA28215020FEF7DAFBDD
:104AD000072C01D0012000E000200090082314A240
:104AE00032215020FEF7CEFBFEF7E6FA18B070BD7B
:104AF000323025303264000025303264000000007E
:104B00002F0000003A0000004D6F6E005475657371
:104B1000000000002573000057656400546875723A
:104B200000000000467269005361740053756E0006
:104B30006261636B0000000070B58CB00E460446E5
:104B40001546142101A8FBF704FB142106A8FBF766
:104B500000FB0DB1012000E00020009008233BA2E3
:104B600014213720FEF78EFB2046FBF7A9FC0246F6
:104B70000B4637A101A8FFF719F80124082301AA61
:104B8000142141200094FEF77DFB012D01D001206E
:104B900000E00020009008232FA214215A20FEF7E5
:104BA00071FB08232DA2142164200094FEF76AFBF8
:104BB000022D01D0012000E000200090082323A254
:104BC0001E213720FEF75EFB3046FBF779FC0246DC
:104BD0000B461FA106A8FEF7E9FF082306AA1E211F
:104BE00041200094FEF74EFB032D01D0012000E090
:104BF00000200090082318A21E215A20FEF742FB35
:104C0000082317A21E2164200094FEF73BFB042D0D
:104C100001D0012000E000200090082311A22821EB
:104C20004620FEF72FFB082310A2302137200094E6
:104C3000FEF728FB082310A2382137200094FEF746
:104C400021FBFEF739FA0CB070BD00002D0000000A
:104C500025302E32660000002B0000006D696E00CA
:104C60006D6178006261636B0000000028736D6104
:104C70006C6C657220697300627267687465722972
:104C80000000000070B59AB064216846FBF761FA35
:104C9000254C207840B3032824D1244803C8081A9F
:104CA000A060FBF700FC224A224BFBF76EFB4FF0A3
:104CB000FF32FBF7DCFBFBF716FC6060FEF7FCF94C
:104CC0006078FBF7EBFB6168FBF734FC01D801204F
:104CD000A07000204FF080412070486201461648C5
:104CE000FDF7CCFB1AB070BD0122144E1502294607
:104CF0003046FCF741FB1E20FFF70EFC0022294640
:104D00003046FCF739FB2078401C20700A480168C7
:104D10000A6A22F00A020A620068016A016200213E
:104D20000548FDF739FBDDE71C0000207C0600206C
:104D30009CC420B07268A13F7C00002000080140A4
:104D40002DE9F047CEB064211BA8FBF702FA6421DD
:104D500034A8FBF7FEF9642102A8FBF7FAF9684CC6
:104D60000025684E2078032805D1FEF783F83570BA
:104D7000257000F017F9307800287CD0FFF782FF0B
:104D80006148DFF888814FF6FF7A017859B10570E4
:104D9000717898F80000014205D0534609225CA1C1
:104DA0005E48FDF795FE5E484FF00109017859B362
:104DB0000570FFF717FC58B186F801905948CDE906
:104DC0000005102300211A460846FEF70DFA10E0F0
:104DD000FFF71CFC68B1757000270024E1B2F8B23F
:104DE0000022FEF7CDF8641C102CF7DB7F1C102F7F
:104DF000F3DB64214C48FBF7ACF94C4864224A4988
:104E000005704648FDF754FE98F80010002974D04C
:104E1000474C88F8005047A1A07800906378E2786A
:104E20001BA8FEF7C3FE48488178009143780278BA
:104E300046A134A8FEF7BAFE207807280CD2DFE896
:104E400000F04F040647494B4D0044A200E044A245
:104E500045A102A8FEF7AAFE14214C4610231BAA66
:104E60000846CDF80090FEF70DFA1023282134AA49
:104E70001E20009400E040E0FEF704FA102302AA8E
:104E800000215A200094FEF7FDF9FEF715F9374886
:104E9000FBF776FF0A213548FBF7D4FE3348FBF7D2
:104EA00013FE80B2FBF7FFFA4FF06632304BFBF790
:104EB0006CFA6FF00B02FBF7DAFAFBF714FB04460F
:104EC0007168FBF72DFB0DD25346092229A111E091
:104ED0002BA2BDE72BA2BBE72CA2B9E72CA2B7E718
:104EE0002CA2B5E72046B168FBF724FB05D2534658
:104EF000082229A10948FDF7EBFD4EB0BDE8F08777
:104F000000000020280000201E00002001000020DA
:104F1000746F6F20636C6F736500000028010020C0
:104F20000A00002074700008C4000020090000205E
:104F3000050000203230253032642F253032642FB6
:104F40002530326400000000020000202530326469
:104F50003A253032643A2530326400004D6F6E00DD
:104F600054756573000000002573000038000020B0
:104F700066660A40746F6F206C6967687400000091
:104F8000576564005468757200000000467269003D
:104F90005361740053756E00746F6F206461726B9F
:104FA000000000002DE9F0439BB0642101A8FBF74D
:104FB000D0F800270124102389A239462820009424
:104FC000FEF760F911237F22194600200094FDF7B7
:104FD00089FF0026082384A2142130460096FEF79C
:104FE00051F9082382A21E2100200094FEF74AF9FD
:104FF000082381A2282100200094FEF743F908230A
:1050000080A2322100200094FEF73CF932223F2397
:10501000142110460094FDF765FFDFF8F0817C4D08
:105020004FF4967998F80010012904D002290BD08A
:10503000032912D014E088F800602868401E286018
:105040000ED5032028600BE088F800602868401C1B
:105050002860032804DD2E6002E088F80060012744
:105060004846FCF76DF8286830B1012825D00228A1
:1050700044D0032820D162E008235BA21421002041
:105080000096FEF7FFF8082359A21E210020009485
:10509000FEF7F8F8082358A2282100200094FEF714
:1050A000F1F8082357A2322100200094FEF7EAF815
:1050B000FFF70EFAFFF71CFA61E008234AA2142159
:1050C00000200094FEF7DEF8082349A21E210020EC
:1050D0000096FEF7D7F8082347A228210020009465
:1050E000FEF7D0F8082347A2322100200094FEF7F3
:1050F000C9F8FFF7EDF9FFF7F7FB40E008233AA204
:10510000142100200094FEF7BDF8082338A21E21C8
:1051100000200094FEF7B6F8082337A228210020CB
:105120000096FEF7AFF8082336A232210020009443
:10513000FEF7A8F8FFF7CCF9FFF7FCF91FE008230A
:1051400029A2142100200094FEF79CF8082328A22D
:105150001E2100200094FEF795F8082326A228219E
:1051600000200094FEF78EF8082326A232210020AA
:105170000096FEF787F8FFF7ABF9FDF79DFF002FCC
:105180003FF450AF2868002778B101281BD00228CF
:1051900021D003287FF446AF1E48047088F80060D1
:1051A000FDF768FE1BB0BDE8F0831B4800220188B4
:1051B000ADF8001080788DF802001848009900685A
:1051C000FFF738FA2EE716480022016815480068F4
:1051D000FFF708FB26E70020FFF7BCFA22E70000F4
:1051E00053657474696E6700446174610000000067
:1051F0004C6967687400000044697374616E63658C
:10520000000000004261636B00000000000000200D
:1052100034000020280000200200002005000020AB
:10522000300000202C0000200102020304050607C4
:1052300008090A0B0C0D0E0F1010010202030405E1
:10524000060708090A0B0C0D0E0F101000000000D5
:105250000000000001020304060708090000000026
:10526000010203040000000000000000002F000005
:1052700000000700070000147F147F1400242A7F19
:105280002A12006264081323003649552250000098
:105290000503000000001C224100000041221C0008
:1052A0000014083E08140008083E0808000000A08A
:1052B0006000000808080808000060600000002086
:1052C00010080402003E5149453E0000427F400064
:1052D000004261514946002141454B3100181412EA
:1052E0007F10002745454539003C4A4949300001B7
:1052F0007109050300364949493600064949291E06
:105300000000363600000000563600000008142267
:105310004100001414141414000041221408000267
:105320000151090600324959513E007C1211127C8C
:10533000007F49494936003E41414122007F4141B9
:10534000221C007F49494941007F09090901003EAB
:105350004149497A007F0808087F0000417F4100E9
:10536000002040413F01007F08142241007F40405F
:105370004040007F020C027F007F0408107F003E47
:105380004141413E007F09090906003E4151215E2D
:10539000007F091929460046494949310001017F2A
:1053A0000101003F4040403F001F2040201F003FC0
:1053B0004038403F00631408146300070870080772
:1053C00000615149454300007F41410000552A5585
:1053D0002A55000041417F00000402010204004000
:1053E0004040404000000102040000205454547822
:1053F000007F484444380038444444200038444442
:10540000487F00385454541800087E0901020018DF
:10541000A4A4A47C007F080404780000447D40001C
:10542000004080847D00007F102844000000417F00
:105430004000007C04180478007C080404780038DC
:105440004444443800FC242424180018242418FC64
:10545000007C0804040800485454542000043F44CD
:105460004020003C4040207C001C2040201C003C90
:105470004030403C004428102844001CA0A0A07CE0
:10548000004464544C441414141414140000000018
:1054900000000000000000000000FC000000000010
:1054A00002000000000C020C0200000000000000DE
:1054B00090D0BCD0BC900003000300001824FE4430
:1054C0008C000302070201001824D8B04C800003AE
:1054D00000010201C038E438E000010202010202CA
:1054E000080600000000000000000000000000F8B6
:1054F0000402000000010204000204F8000000049D
:10550000020100009060F8609000000001000000BF
:105510002020FC202000000001000000000000000E
:1055200000000806000000002020202020000000CD
:105530000000000000000000000000020000000069
:105540000080601C0200040300000000F804040452
:10555000F8000102020201000008FC000000000245
:10556000030200001884442418000302020202000F
:1055700008042424D80001020202010040B088FC83
:1055800080000000000302003C242424C400010227
:1055900002020100F824242CC000010202020100D2
:1055A0000C04E41C0400000003000000D8242424A0
:1055B000D80001020202010038444444F80000030C
:1055C00002020100000010000000000002000000C4
:1055D00000002000000000000600000000205088AD
:1055E00004020000000001029090909090000000E2
:1055F00000000000000204885020000201000000AA
:105600001804C4241800000002000000F804E49408
:10561000F80001020202020000E09CF08000020398
:105620000000030204FC2424D8000203020201004B
:10563000F80404040C0001020202010004FC04044A
:10564000F80002030202010004FC24740C000203AF
:105650000202030004FC24740C0002030200000098
:10566000F0080444CC4000010202010004FC2020A8
:10567000FC040203000003020404FC040400020210
:1056800003020200000404FC0404060404030000F6
:1056900004FC24D00C0402030200030204FC0400F6
:1056A0000000020302020203FC3CC03CFC000300B9
:1056B0000300030004FC30C4FC04020302000300E6
:1056C000F8040404F80001020202010004FC24248E
:1056D0001800020302000000F8848404F8000102AC
:1056E0000207050004FC2464980002030200030280
:1056F000182424448C000302020201000C04FC0460
:105700000C0000020302000004FC0000FC04000185
:1057100002020100047C80E01C0400000300000081
:105720001CE03CE01C00000300030000049C609CA3
:105730000400020300030200041CE01C0400000239
:10574000030200000C84641C040002030202030034
:105750000000FE020200000007040400000E30C03A
:105760000000000000010200000202FE0000000430
:105770000407000000040204000000000000000014
:1057800000000000000008080808080800000200E7
:1057900000000000000000000040A0A0C0000001C8
:1057A0000202030204FC2020C000000302020100E8
:1057B00000C02020600000010202020000C020247E
:1057C000FC0000010202030200C0A0A0C000000112
:1057D000020202000020F824240400020302020056
:1057E0000040A0A0602000070A0A0A0404FC202050
:1057F000C0000203020003020020E40000000002D7
:1058000003020000000020E4000008080807000070
:1058100004FC80E020200203020003020404FC00D8
:105820000000020203020200E020E020C0000300AA
:105830000300030020E02020C00002030200030256
:1058400000C02020C00000010202010020E0202052
:10585000C000080F0A02010000C02020E000000183
:10586000020A0F0820E0402020000203020000008E
:105870000060A0A020000002020203000020F82027
:10588000000000000102020020E00020E000000112
:105890000202030220E020806020000003010000DB
:1058A0006080E080600000030003000020608060F2
:1058B000200002030003020020E02080602008088E
:1058C000070100000020A060200000020302020087
:1058D000000020DE0200000000070400000000FFBE
:1058E00000000000000F00000002DE2000000004A5
:1058F0000700000002010204040200000000000092
:105900000000000000000000000000000000000097
:10591000000000F80000000000000033300000002C
:1059200000100C06100C0600000000000000000033
:1059300040C07840C0784000043F04043F040400A5
:10594000007088FC08300000001820FF211E0000B5
:10595000F008F000E018000000211C031E211E00CA
:1059600000F00888700000001E2123241927211050
:1059700010160E00000000000000000000000000F3
:10598000000000E01804020000000007182040009A
:1059900000020418E000000000402018070000008A
:1059A000404080F0804040000202010F01020200EE
:1059B000000000F0000000000101011F01010100D2
:1059C000000000000000000080B070000000000037
:1059D00000000000000000000001010101010101C0
:1059E0000000000000000000003030000000000057
:1059F000000000008060180400601806010000002C
:105A000000E010080810E000000F102020100F0028
:105A1000001010F8000000000020203F20200000AF
:105A20000070080808887000003028242221300007
:105A300000300888884830000018202020110E000F
:105A40000000C02010F8000000070424243F2400B8
:105A500000F80888880808000019212020110E008D
:105A600000E0108888180000000F112020110E009F
:105A700000380808C83808000000003F0000000097
:105A80000070880808887000001C222121221C0058
:105A900000E010080810E0000000312222110F0081
:105AA000000000C0C0000000000000303000000016
:105AB0000000008000000000000080600000000086
:105AC000000080402010080000010204081020009F
:105AD00040404040404040000404040404040400EA
